:020000040800F2
:1000000050040020A90100086F0C00088D0B0008A7
:100010006D0C000891020008451000080000000067
:10002000000000000000000000000000930C000829
:100030009302000800000000910C0008950C0008D5
:10004000C3010008C3010008C3010008C301000880
:10005000C3010008C3010008C3010008C301000870
:10006000C3010008C3010008C3010008C301000860
:10007000C3010008C3010008C3010008C301000850
:10008000C3010008C3010008C3010008000000000C
:10009000000000000000000000000000C301000894
:1000A000C3010008C3010008C3010008C301000820
:1000B000C3010008C3010008C3010008C301000810
:1000C000C3010008C3010008C3010008C301000800
:1000D000C3010008C3010008C301000800000000BC
:1000E000C3010008C3010008C301000800000000AC
:1000F000000000000000000000000000C301000834
:1001000000000000C3010008C3010008C30100088B
:1001100000000000000000000000000000000000DF
:10012000C3010008C3010008C3010008C30100089F
:10013000C3010008000000000000000000000000F3
:10014000000000000000000000000000C3010008E3
:10015000C3010008C3010008C3010008C30100086F
:10016000C3010008C30100080000000000000000F7
:10017000000000000000000000000000000000007F
:1001800000000000C30100080000000000000000A3
:10019000C3010008DFF80CD000F068F80048004701
:1001A00067100008500400200648804706480047B2
:1001B000FEE7FEE7FEE7FEE7FEE7FEE7FEE7FEE717
:1001C000FEE7FEE7450D0008950100082DE9F05F08
:1001D0000546002092469B468846064681464024B6
:1001E0001BE0284641464746224600F02FF853467A
:1001F0005A46C01A914110D311461846224600F0C3
:1002000016F82D1A67EB01084F46224601200021FF
:1002100000F00DF817EB00094E41201EA4F1010477
:10022000DFDC484631462A464346BDE8F09F202A97
:1002300004DB203A00FA02F1002070479140C2F13D
:10024000200320FA03F3194390407047202A04DB6F
:10025000203A21FA02F00021704721FA02F3D0403F
:10026000C2F120029140084319467047064C074DE1
:1002700006E0E06840F0010394E807009847103476
:10028000AC42F6D3FFF78AFF90100008B0100008C8
:10029000FEE770472DE9F84FDFF860B100224FF01C
:1002A00001084FF0030A4FF00F090BF1040E00BFD5
:1002B0000B6808FA02F42340A3426ED14D68022D68
:1002C00001D0122D0ED1D50800EB850CDCF82050A2
:1002D0005607F70E09FA07F6B5430E69BE402E43DE
:1002E000CCF82060066855000F790AFA05FC07F083
:1002F000030726EA0C06AF40374307604E68012E1D
:1003000005D0022E03D0112E01D0122E0ED18668F8
:10031000CF6826EA0C06AF40374387604668A6439D
:100320000C79C4F30014944034434460C6688C686C
:1003300026EA0C06AC403443C4604C68E40056D551
:100340002F4C256845F480452560246822F003057C
:1003500004F4804400942B4C2E19D6F808489507D5
:100360002F0F09FA07F5AC43274DA84201D100250C
:1003700015E0264DA84201D1012510E0244DA842E8
:1003800001D102250BE0234DA84201D1032506E04F
:10039000214DA84202D1042501E028E00725BD40F7
:1003A0002543C6F80858DBF800405D464E689C437C
:1003B000F60300D51C432C60DEF8004075464E68FD
:1003C0009C43B60300D51C432C600C4D08352C68AB
:1003D0004E689C43F60200D51C432C60074D0C353B
:1003E0002C684E689C43B60200D51C432C60521CFE
:1003F000102AFFF45DAFBDE8F88F0000003C01401B
:100400004438024000300140000002400004024035
:1004100000080240000C0240001002400AB1816155
:1004200070470904FBE7000001488068704700003E
:100430000000002002488168027811448160704702
:10044000000000200B4810B5016841F40071016004
:10045000016841F480610160016841F480710160CC
:10046000032000F08BF8002000F006F800F024F8DC
:10047000002010BD003C024070B50D4D04464FF405
:100480007A712878B1FBF0F00A490968B1FBF0F005
:1004900000F00FFB48B9102C07D200222146501E55
:1004A00000F04CF800206C6070BD012070BD0000B1
:1004B000000000200C0000201F4808B5016841F42E
:1004C00080410160006800F4804000901A48001FDD
:1004D000016841F080510160006800F08050009098
:1004E000072000F04BF8002211466FF00B0000F0DF
:1004F00025F8002211466FF00A0000F01FF80022D4
:1005000011466FF0090000F019F800221146501F43
:1005100000F014F800221146101F00F00FF800221E
:100520001146901E00F00AF80022BDE8084011466E
:10053000501E00F003B8000044380240F0B40E4BE7
:100540001B680C46C3F30223C3F10705042D00D931
:100550000425191D072901D2002300E0DB1E012616
:1005600006FA05F1491E214099409E40761E16402C
:100570003143F0BC00F07CBB0CED00E0064900F01C
:10058000070208684FF6FF03184040EA0220034ABA
:1005900010430860704700000CED00E00000FA0511
:1005A0002DE9F0470E46050065D0DFF81481D8F834
:1005B0000000F7B200F00F00B04207D288F80070D8
:1005C000D8F8000000F00F00B04254D128683D4C2C
:1005D000810712D5400703D5206840F4E050206021
:1005E0002878000703D5206840F460402060206828
:1005F000A96820F0F000084320602878C0072DD0BB
:10060000304968680839012812D0022813D003281D
:1006100011D00968890700292DDA216821F003012A
:1006200001432160FFF700FF814641F2883A0EE066
:1006300009688903EFE709688901ECE7FFF7F4FE31
:10064000A0EB0901514502D90320BDE8F0872068DD
:10065000696800F00C00B0EB810FEFD1D8F8001002
:10066000404601F00F01B14207D90770006800F061
:100670000F00B04201D00120E7E72878400705D5F8
:100680002068E96820F4E0500843206028780007DB
:1006900006D52068296920F4604040EAC100206046
:1006A00000F03CF82168084AC1F30311515CC840CE
:1006B000064908600020FFF7DFFE0020C5E70000C4
:1006C000003C024008380240781000080C0000206E
:1006D00001480068704700000C00002004480549EC
:1006E00000680968044AC1F38221515CC840704720
:1006F0000C00002008380240881000080448054912
:1007000000680968044AC1F34231515CC84070472F
:100710000C0000200838024088100008154810B569
:10072000006810F00C02144813D04110042A0FD0B6
:10073000082A0ED10F4C241F2268236802F03F02C2
:100740005B0207D52068C0F38810A0FB010106E01A
:10075000084610BD2168C1F38811A1FB00010023E8
:10076000FFF734FD2168C1F30141491C4900B0FB8A
:10077000F1F010BD083802400024F4002DE9F84FD4
:10078000050076D02878DFF8F8B2BE4CC00749D013
:10079000DBF800105846C1F38101012908D0006838
:1007A000C0F3810002280AD1201D0068400206D54E
:1007B0002068800336D568680028E2D032E0686897
:1007C000B0F5803F10D0B0F5A02F206810D020F4F5
:1007D00080302060206820F4802020606868A0B10C
:1007E000FFF722FE06460CE0206840F48030F4E774
:1007F00040F480202060F7E7FFF716FE801B642896
:1008000073D820688003F7D50CE0FFF70DFE06468D
:1008100005E000BFFFF708FE801B6428F0D82068C1
:100820008003F7D42878DFF8608280074FF0000952
:100830003ED5DBF80010584611F00C0F09D00068C7
:10084000C0F3810002280BD18D48001F00684002D0
:1008500006D42068800715D5E868012809D111E081
:10086000E868B8B10120C8F80000FFF7DDFD0646D2
:1008700005E002E1FFF7D8FD801B0228C0D8206800
:100880008007F7D52068296920F0F80040EAC10008
:1008900020600DE0C8F80090FFF7C6FD064604E0B2
:1008A000FFF7C2FD801B02281FD820688007F7D4FD
:1008B0002878000722D5724E744869696C3671B188
:1008C00001210160FFF7B0FD074604E0FFF7ACFD32
:1008D000C01B022809D830688007F7D50EE0C0F8A1
:1008E0000090FFF7A1FD074605E083E0FFF79CFDC0
:1008F000C01B02287ED830688007F7D428784007CC
:1009000068D5DFF87CA100270AF1380ADAF8000080
:10091000C0000BD4DAF8001041F08051CAF8001082
:10092000DAF80000012700F080500090584E30683F
:10093000C00510D4306840F480703060FFF774FD5B
:10094000009005E0FFF770FD0099401A022851D889
:100950003068C005F6D54A4EA868683601280FD021
:100960000528306810D020F001003060306820F099
:1009700004003060A868B8B1FFF756FD00900FE0A2
:10098000306840F00100F4E740F004003060F7E721
:10099000FFF74AFD0099411A41F28830814264D83C
:1009A00030688007F4D50EE0FFF73EFD009007E0C9
:1009B000FFF73AFD0099411A41F28830814254D83C
:1009C00030688007F4D42FB1DAF8001021F080519C
:1009D000CAF80010A869C0B3DBF80010C1F38101A8
:1009E00002294AD00228484607D0C8F86000FFF71D
:1009F0001BFD00E039E005463AE04746C8F86000D4
:100A0000FFF712FD064604E0FFF70EFD801B0228EB
:100A10002BD820688001F7D4D5E907010843A96ADB
:100A20001C4A490802EB01416A6A41EA8211084303
:100A300095F82C1040EA01611148001F0160012067
:100A40003866FFF7F1FC054605E014E0FFF7ECFC23
:100A5000401B022809D820688001F7D50BE000BFB1
:100A6000FFF7E2FC401B022802D90320BDE8F88F03
:100A700020688001F4D40020F8E70120F6E70000A8
:100A8000083802400038024000004742800E4742CA
:100A9000007000400000FFFF4FF0E02104280869CB
:100AA00003D020F004000861704740F00400FAE72A
:100AB000704710B5401EB0F1807F01D3012010BDFA
:100AC0004FF0E02460610F21601700F0D1F80020A2
:100AD000A06107202061002010BD10B5FFF7E8FFDE
:100AE00010BD70B5040004D094F83900002510B191
:100AF00006E0012070BD84F83850204600F022F84E
:100B0000242084F839002068C16821F40051C160B4
:100B1000204600F041F92068016921F4904101610B
:100B20002068416921F02A0141612068C16841F4CF
:100B30000051C160E563202084F8390084F83A0050
:100B4000002070BD00B500680D4987B0884215D1FE
:100B50000C480021026842F400320260006800F490
:100B6000003005900C2000900220CDE90101072003
:100B7000CDE9031069460448FFF78CFB07B000BDC0
:100B8000004400404038024000000240FEE7000000
:100B900030B51F4887B00024016841F004010160AE
:100BA000016801F004010591016841F080010160D4
:100BB000016801F080010591016841F001010160C7
:100BC000016801F001010591016841F00201016035
:100BD0000068104D00F002000590002220212846F8
:100BE000FFF71CFC4FF4005000900B48CDE90104C6
:100BF00069460A48FFF74EFB202000900120CDE90E
:100C00000104694628460394FFF744FB07B030BD52
:100C1000303802400000024000002110000802406D
:100C20000D4810B50B4901604FF4E13141600021DE
:100C300081600C22C160C0E904128161C161FFF7CB
:100C400050FF002805D0BDE81040422103A000F06D
:100C5000FAB910BD00440040100000202E2E2F5382
:100C600072632F75736172742E630000FEE7704724
:100C70000907090E002806DA00F00F0000F1E02055
:100C800080F8141D704700F1E02080F800147047D0
:100C90007047704710B5FFF7CDFBBDE81040FFF778
:100CA0001CBF000030B5254893B00024016841F016
:100CB00080510160006800F0805011902048016868
:100CC00021F4404141F4004101600068022500F434
:100CD000404011900120039010200095069504904B
:100CE000CDE907404FF4A870099004200A9007202E
:100CF0000B906846FFF742FD00B1FEE70F20CDE9FB
:100D00000C054FF48050CDE90E4002210CA8109440
:100D1000FFF746FC00B1FEE7FFF7DAFC4FF47A710B
:100D2000B0FBF1F0FFF7C5FE0420FFF7B5FE00228F
:100D30001146501EFFF702FC13B030BD4038024090
:100D4000007000401048016841F4700101600F48D4
:100D5000016841F0010101600C4A00210832116074
:100D600002680B4B1A400260031D0A4A1A600268AF
:100D700022F48022026005480C30016002495806C6
:100D8000803908607047000088ED00E000380240BC
:100D9000FFFFF6FE103000242DE9F0410446006804
:100DA000016921F44052E168114301612168C8687A
:100DB00049F20C6290432369A268E5691A436369AA
:100DC0002B431A430243CA602168486920F44072E9
:100DD000A06910434861E1696425B1F5004F974867
:100DE000974A21684FF032083FD0914201D08142AA
:100DF0007CD1FFF783FC00EBC00101EB00106168C0
:100E00008900B0FBF1F6FFF779FC00EBC00101EBC4
:100E1000001061688900B0FBF1F0B0FBF5F06FF0F5
:100E20001801484306EB800108EB0110B0FBF5F018
:100E300000F0F006FFF762FC00EBC00101EB0010D0
:100E400061688900B0FBF1F0B0FBF5F006EB00162D
:100E5000FFF754FC00EBC00101EB00106168890052
:100E6000B0FBF1F7FFF74AFCD2E0914201D081429A
:100E70003DD1FFF743FC00EBC00101EB00106168BE
:100E80004900B0FBF1F0B0FBF5F00601FFF736FCCE
:100E900000EBC00101EB001061684900B0FBF1F705
:100EA000FFF72CFC00EBC00101EB0010616849006A
:100EB000B0FBF1F0B0FBF5F06FF01801484307EB21
:100EC000800108EBC100B0FBF5F000F0F80006EB84
:100ED0004006FFF713FC00EBC00101EB0010616856
:100EE0004900B0FBF1F7FFF709FC3CE055E0FFF7E4
:100EF000F5FB00EBC00101EB001061684900B0FB9D
:100F0000F1F0B0FBF5F00601FFF7E8FB00EBC001E4
:100F100001EB001061684900B0FBF1F7FFF7DEFB61
:100F200000EBC00101EB001061684900B0FBF1F07B
:100F3000B0FBF5F06FF01801484307EB800108EBB8
:100F4000C100B0FBF5F000F0F80006EB4006FFF73B
:100F5000C5FB00EBC00101EB001061684900B0FB6C
:100F6000F1F7FFF7BBFB00EBC00101EB001061687C
:100F70004900B0FBF1F0B0FBF5F06FF01801484309
:100F800007EB800108EBC100B0FBF5F000F00700B3
:100F9000216830448860BDE8F081FFF79FFB00EBDB
:100FA000C00101EB001061688900B0FBF1F6FFF7AA
:100FB00095FB00EBC00101EB001061688900B0FBFC
:100FC000F1F0B0FBF5F06FF01801484306EB80013B
:100FD00008EB0110B0FBF5F000F0F006FFF77EFB28
:100FE00000EBC00101EB001061688900B0FBF1F07B
:100FF000B0FBF5F006EB0016FFF770FB00EBC0014D
:1010000001EB001061688900B0FBF1F7FFF766FBA8
:1010100000EBC00101EB001061688900B0FBF1F04A
:10102000B0FBF5F06FF01801484307EB800108EBC7
:101030000110B0FBF5F000F00F00A9E7001401402B
:1010400000100140FEE7FEE702E008C8121F08C1D9
:10105000002AFAD170477047002001E001C1121F39
:10106000002AFBD17047FFF7EDF9FFF71BFEFFF7F2
:101070008FFDFFF7D5FDFEE7000000000000000037
:10108000010203040607080900000000010203042E
:10109000B0100008000000201000000048100008F8
:1010A000C010000810000020400400005810000884
:1010B0000100000010000000000000000024F40007
:040000050800019559
:00000001FF
