:020000040800F2
:10000000C8040020A9010008EB100008E70E000852
:10001000E910000891020008111700080000000014
:100020000000000000000000000000000F110008A8
:1000300093020008000000000D11000811110008D3
:10004000C3010008C3010008C3010008C301000880
:10005000C3010008C3010008C3010008C301000870
:10006000C3010008C3010008C3010008C301000860
:10007000C3010008C3010008C3010008C301000850
:10008000C3010008C3010008C3010008000000000C
:10009000000000000000000000000000C301000894
:1000A000C3010008C3010008C3010008C301000820
:1000B000C3010008C3010008C3010008C301000810
:1000C000C3010008C3010008C3010008C301000800
:1000D000C3010008C3010008C301000800000000BC
:1000E000C3010008C3010008C301000800000000AC
:1000F000000000000000000000000000C301000834
:1001000000000000C3010008C3010008C30100088B
:1001100000000000000000000000000000000000DF
:10012000C3010008C3010008C3010008C30100089F
:10013000C3010008000000000000000000000000F3
:10014000000000000000000000000000C3010008E3
:10015000C3010008C3010008C3010008C30100086F
:10016000C3010008C30100080000000000000000F7
:10017000000000000000000000000000000000007F
:1001800000000000C30100080000000000000000A3
:10019000C3010008DFF80CD000F068F80048004701
:1001A000C9180008C80400200648804706480047D0
:1001B000FEE7FEE7FEE7FEE7FEE7FEE7FEE7FEE717
:1001C000FEE7FEE7C1110008950100082DE9F05F88
:1001D0000546002092469B468846064681464024B6
:1001E0001BE0284641464746224600F02FF853467A
:1001F0005A46C01A914110D311461846224600F0C3
:1002000016F82D1A67EB01084F46224601200021FF
:1002100000F00DF817EB00094E41201EA4F1010477
:10022000DFDC484631462A464346BDE8F09F202A97
:1002300004DB203A00FA02F1002070479140C2F13D
:10024000200320FA03F3194390407047202A04DB6F
:10025000203A21FA02F00021704721FA02F3D0403F
:10026000C2F120029140084319467047064C074DE1
:1002700006E0E06840F0010394E807009847103476
:10028000AC42F6D3FFF78AFFE41A0008041B00080B
:10029000FEE7704770B5044600F0D8F80546601CCC
:1002A00002D004480078044400F0D0F8401BA0427B
:1002B000FAD370BD000000202DE9F84FDFF860B1DF
:1002C00000224FF001084FF0030A4FF00F090BF125
:1002D000040E00BF0B6808FA02F42340A3426ED15B
:1002E0004D68022D01D0122D0ED1D50800EB850CE2
:1002F000DCF820505607F70E09FA07F6B5430E69E9
:10030000BE402E43CCF82060066855000F790AFAEB
:1003100005FC07F0030726EA0C06AF4037430760E9
:100320004E68012E05D0022E03D0112E01D0122EC0
:100330000ED18668CF6826EA0C06AF403743876047
:100340004668A6430C79C4F30014944034434460D7
:10035000C6688C6826EA0C06AC403443C4604C681E
:10036000E40056D52F4C256845F480452560246867
:1003700022F0030504F4804400942B4C2E19D6F887
:10038000084895072F0F09FA07F5AC43274DA842F7
:1003900001D1002515E0264DA84201D1012510E02C
:1003A000244DA84201D102250BE0234DA84201D1E2
:1003B000032506E0214DA84202D1042501E028E0F2
:1003C0000725BD402543C6F80858DBF800405D46C8
:1003D0004E689C43F60300D51C432C60DEF80040B9
:1003E00075464E689C43B60300D51C432C600C4DEB
:1003F00008352C684E689C43F60200D51C432C60DF
:10040000074D0C352C684E689C43B60200D51C4342
:100410002C60521C102AFFF45DAFBDE8F88F00007D
:10042000003C0140443802400030014000000240DE
:100430000004024000080240000C0240001002408C
:100440000AB1816170470904FBE700000148806838
:1004500070470000000000200248816802781144C3
:1004600081607047000000200B4810B5016841F41E
:1004700000710160016841F480610160016841F42C
:1004800080710160032000F08BF8002000F006F876
:1004900000F024F8002010BD003C024070B50D4D66
:1004A00004464FF47A712878B1FBF0F00A490968E4
:1004B000B1FBF0F000F00FFB48B9102C07D200227E
:1004C0002146501E00F04CF800206C6070BD0120E9
:1004D00070BD0000000000200C0000201F4808B57F
:1004E000016841F480410160006800F480400090A0
:1004F0001A48001F016841F080510160006800F057
:1005000080500090072000F04BF8002211466FF059
:100510000B0000F025F8002211466FF00A0000F0F1
:100520001FF8002211466FF0090000F019F80022B0
:100530001146501F00F014F800221146101F00F061
:100540000FF800221146901E00F00AF80022BDE8C4
:1005500008401146501E00F003B800004438024025
:10056000F0B40E4B1B680C46C3F30223C3F107051E
:10057000042D00D90425191D072901D2002300E00C
:10058000DB1E012606FA05F1491E214099409E40D6
:10059000761E16403143F0BC00F0A8BD0CED00E023
:1005A000064900F0070208684FF6FF03184040EACA
:1005B0000220034A10430860704700000CED00E081
:1005C0000000FA052DE9F0470E46050065D0DFF87A
:1005D0001481D8F80000F7B200F00F00B04207D243
:1005E00088F80070D8F8000000F00F00B04254D135
:1005F00028683D4C810712D5400703D5206840F498
:10060000E05020602878000703D5206840F460405F
:1006100020602068A96820F0F00008432060287856
:10062000C0072DD0304968680839012812D0022847
:1006300013D0032811D00968890700292DDA216811
:1006400021F0030101432160FFF700FF814641F2E1
:10065000883A0EE009688903EFE709688901ECE749
:10066000FFF7F4FEA0EB0901514502D90320BDE8D4
:10067000F0872068696800F00C00B0EB810FEFD1C3
:10068000D8F80010404601F00F01B14207D90770B9
:10069000006800F00F00B04201D00120E7E72878A1
:1006A000400705D52068E96820F4E0500843206041
:1006B0002878000706D52068296920F4604040EAC0
:1006C000C100206000F03CF82168084AC1F3031122
:1006D000515CC840064908600020FFF7DFFE00209B
:1006E000C5E70000003C024008380240CA1A000872
:1006F0000C00002001480068704700000C0000203A
:100700000448054900680968044AC1F38221515C24
:10071000C84070470C00002008380240DA1A000870
:100720000448054900680968044AC1F34231515C34
:10073000C84070470C00002008380240DA1A000850
:10074000154810B5006810F00C02144813D0411081
:10075000042A0FD0082A0ED10F4C241F22682368C8
:1007600002F03F025B0207D52068C0F38810A0FBAF
:10077000010106E0084610BD2168C1F38811A1FB04
:1007800000010023FFF722FD2168C1F30141491C4C
:100790004900B0FBF1F010BD083802400024F4001D
:1007A0002DE9F84F050076D02878DFF8F8B2BE4C76
:1007B000C00749D0DBF800105846C1F38101012978
:1007C00008D00068C0F3810002280AD1201D00680B
:1007D000400206D52068800336D568680028E2D03C
:1007E00032E06868B0F5803F10D0B0F5A02F2068E7
:1007F00010D020F480302060206820F48020206019
:100800006868A0B1FFF722FE06460CE0206840F4BD
:100810008030F4E740F480202060F7E7FFF716FE11
:10082000801B642873D820688003F7D50CE0FFF79D
:100830000DFE064605E000BFFFF708FE801B64289A
:10084000F0D820688003F7D42878DFF8608280072A
:100850004FF000093ED5DBF80010584611F00C0FA0
:1008600009D00068C0F3810002280BD18D48001F19
:100870000068400206D42068800715D5E868012882
:1008800009D111E0E868B8B10120C8F80000FFF70D
:10089000DDFD064605E002E1FFF7D8FD801B0228DA
:1008A000C0D820688007F7D52068296920F0F800B3
:1008B00040EAC10020600DE0C8F80090FFF7C6FDD7
:1008C000064604E0FFF7C2FD801B02281FD82068FF
:1008D0008007F7D42878000722D5724E74486969DA
:1008E0006C3671B101210160FFF7B0FD074604E0ED
:1008F000FFF7ACFDC01B022809D830688007F7D588
:100900000EE0C0F80090FFF7A1FD074605E083E088
:10091000FFF79CFDC01B02287ED830688007F7D403
:100920002878400768D5DFF87CA100270AF1380A4B
:10093000DAF80000C0000BD4DAF8001041F0805162
:10094000CAF80010DAF80000012700F0805000908B
:10095000584E3068C00510D4306840F48070306064
:10096000FFF774FD009005E0FFF770FD0099401A55
:10097000022851D83068C005F6D54A4EA8686836B6
:1009800001280FD00528306810D020F00100306019
:10099000306820F004003060A868B8B1FFF756FD59
:1009A00000900FE0306840F00100F4E740F00400F0
:1009B0003060F7E7FFF74AFD0099411A41F28830AD
:1009C000814264D830688007F4D50EE0FFF73EFD21
:1009D000009007E0FFF73AFD0099411A41F2883094
:1009E000814254D830688007F4D42FB1DAF800106F
:1009F00021F08051CAF80010A869C0B3DBF80010DC
:100A0000C1F3810102294AD00228484607D0C8F81C
:100A10006000FFF71BFD00E039E005463AE047467D
:100A2000C8F86000FFF712FD064604E0FFF70EFD70
:100A3000801B02282BD820688001F7D4D5E9070154
:100A40000843A96A1C4A490802EB01416A6A41EA63
:100A50008211084395F82C1040EA01611148001FEB
:100A6000016001203866FFF7F1FC054605E014E05F
:100A7000FFF7ECFC401B022809D820688001F7D55D
:100A80000BE000BFFFF7E2FC401B022802D9032065
:100A9000BDE8F88F20688001F4D40020F8E7012039
:100AA000F6E70000083802400038024000004742E4
:100AB000800E4742007000400000FFFF4FF0E02131
:100AC0000428086903D020F004000861704740F052
:100AD0000400FAE7704710B5401EB0F1807F01D3E3
:100AE000012010BD4FF0E02460610F21601700F07D
:100AF000FDFA0020A06107202061002010BD10B584
:100B0000FFF7E8FF10BD10B590F83820012A25D076
:100B1000012280F83820CA688C6822F4407222438F
:100B20004C6822F4806222430C6822F40062224363
:100B30000C6922F4805222434C6922F40052224371
:100B40008C6922F48042224322F40041026800238F
:100B50002143516480F83830002010BD022010BDC0
:100B600030B590F83820012A20D0012280F83820B2
:100B7000022380F8393003685C6824F070045C60FC
:100B800003685C680D682C435C6003689C6824F013
:100B900080049C6003689C6849680C439C6080F8F2
:100BA0003920002180F83810084630BD022030BDC1
:100BB00000B5104B02680021022085B09A4209D18D
:100BC00042020092CDE901010120CDE903106946FE
:100BD00009480AE0094B9A4209D192150092CDE9E1
:100BE0000101CDE9031069460548FFF765FB05B033
:100BF00000BD00000000014000000240000800406D
:100C00000004024070B5044690F838000D460128F3
:100C10000DD0012684F83860022084F8390042B1F2
:100C2000042A18D0082A2AD00C2A4DD139E00220F3
:100C300070BD206800F042FB2068816941F0080126
:100C400081612068816921F00401816120688169E6
:100C50002A69114311E0206800F058FB206881697F
:100C600041F4006181612068816921F480618161C2
:100C7000206881692A6941EA0221816124E02068B3
:100C800000F070FB2068C16941F00801C161206873
:100C9000C16921F00401C1612068C1692A69114359
:100CA00011E0206800F08AFB2068C16941F400610E
:100CB000C1612068C16921F48061C1612068C16996
:100CC0002A6941EA0221C16184F83960002084F870
:100CD000380070BD10B5040003D094F8390010B18D
:100CE00007E0012010BD002084F83800204600F005
:100CF0000DF8022084F83900211D206800F08AFADE
:100D0000012084F83900002010BD000008B50068FB
:100D10000C49884208D10C48016841F0010101608A
:100D2000006800F001000BE00849884209D106483C
:100D3000001F016841F004010160006800F0040038
:100D4000009008BD00000140443802400008004007
:100D500010B504460068012200F0A4FA0749206893
:100D6000884203D1416C41F400414164206801682C
:100D700041F001010160002010BD000000000140B1
:100D800070B5040004D094F83900002510B106E0D5
:100D9000012070BD84F83850204600F023F824204C
:100DA00084F839002068C16821F40051C1602046F0
:100DB00000F026FB2068016921F490410161206860
:100DC000416921F02A0141612068C16841F4005164
:100DD000C160E563202084F8390084F83A000020DF
:100DE00070BD000000B500680D4987B0884215D17C
:100DF0000C480021026842F400320260006800F4EE
:100E0000003005900C2000900220CDE90101072060
:100E1000CDE9031069460448FFF74EFA07B000BD5C
:100E20000044004040380240000002402DE9F843F1
:100E3000044690F839001F4616460D46202850D12A
:100E4000A5B19EB194F8380001284AD0012084F859
:100E500038004FF00008C4F83C80212084F83900A5
:100E6000FFF7F4FAA6848146E68426E00120BDE877
:100E7000F883E08C401EE084A0684B46B0F5805FAC
:100E80004FF000024FF080012046009703D000F0A1
:100E90000DFCE8B90DE000F009FCC8B9288821680C
:100EA000C0F308004860206908B16D1C05E0AD1C66
:100EB00003E0216815F8010B4860E08C0028D8D1C8
:100EC0004B46002240212046009700F0EFFB08B17E
:100ED0000320CCE7202084F8390084F838800020F3
:100EE000C5E70220C3E7FEE730B51F4887B00024FE
:100EF000016841F004010160016801F004010591FD
:100F0000016841F080010160016801F080010591F4
:100F1000016841F001010160016801F001010591E2
:100F2000016841F0020101600068104D00F002000C
:100F30000590002220212846FFF782FA4FF4005046
:100F400000900B48CDE9010469460A48FFF7B4F95F
:100F5000202000900120CDE9010469462846039431
:100F6000FFF7AAF907B030BD303802400000024058
:100F7000000021100008024010B5244890B022491A
:100F80000024C0E900146421C0E902410461446105
:100F9000FFF7A0FE18B141211DA000F0BAFB0E948E
:100FA0000EA91A480F94FFF7DBFD18B1482118A0CD
:100FB00000F0AFFB602000903220CDE901040394E3
:100FC000049405940822694610480694FFF71AFE17
:100FD00018B154210EA000F09CFB079408940994CA
:100FE0004FF400500A94CDE90B4007A907480D942F
:100FF000FFF789FD18B1602105A000F08AFB0348C6
:10100000FFF7D6FD10B010BD000001401000002019
:101010002E2E2F5372632F74696D2E630000000013
:1010200010B519488AB017490024C0E9001464219A
:10103000C0E902410461FFF74DFE18B1732113A00E
:1010400000F067FB079407A90F480894FFF788FD95
:1010500018B17A210DA000F05CFB602000903220D6
:10106000CDE901040822694607480494FFF7CAFD48
:1010700018B1832105A000F04CFB0348FFF798FD51
:101080000AB010BD000800404C0000202E2E2F5347
:1010900072632F74696D2E63000000000D4810B557
:1010A0000B4901604FF4E1314160002181600C2265
:1010B000C160C0E904128161C161FFF761FE0028CF
:1010C00005D0BDE81040422103A000F022BB10BDB6
:1010D00000440040880000202E2E2F5372632F758D
:1010E000736172742E630000FEE770470907090EF2
:1010F000002806DA00F00F0000F1E02080F8141D4F
:10110000704700F1E02080F8001470477047704786
:1011100010B5FFF7A1F9BDE81040FFF7F0BC0000E3
:1011200030B5254893B00024016841F0805101603A
:10113000006800F0805011902048016821F440417F
:1011400041F4004101600068022500F44040119024
:10115000012003901020009506950490CDE90740EA
:101160004FF4A870099004200A9007200B9068465D
:10117000FFF716FB00B1FEE70F20CDE90C054FF499
:101180008050CDE90E4002210CA81094FFF71AFA06
:1011900000B1FEE7FFF7AEFA4FF47A71B0FBF1F061
:1011A000FFF799FC0420FFF789FC00221146501E2E
:1011B000FFF7D6F913B030BD403802400070004050
:1011C0001048016841F4700101600F48016841F066
:1011D000010101600C4A00210832116002680B4BCA
:1011E0001A400260031D0A4A1A60026822F4802233
:1011F000026005480C3001600249580680390860D9
:101200007047000088ED00E000380240FFFFF6FE66
:1012100010300024F0B502681B4B1C4C9F031C4D82
:101220001C4E984207D0B84205D0A04203D0A84235
:1012300001D0B04204D122F0700C4A6842EA0C029C
:10124000984210D0B8420ED0A0420CD0A8420AD08A
:10125000B04208D0104CA04205D0104CA04202D0A1
:101260000F4CA04203D122F44074CA6822430260AA
:101270008A68C2620A688262984201D10969016380
:1012800001214161F0BD0000000001400004004068
:1012900000080040000C00400040014000440140B4
:1012A0000048014010B50123046A8B409C4304624E
:1012B000036A8A401343036210BD000030B5026A1E
:1012C00022F001020262026A4368846924F0730515
:1012D0000C682C4322F002058A682A430A4DA84272
:1012E0000BD122F00805CA6823F440732A434D69E4
:1012F00022F004021D438B692B43436084614968DB
:101300004163026230BD00000000014030B5026A56
:1013100022F010020262026A436884690D6824F4B4
:10132000E64444EA05248D6822F0200242EA0512D0
:101330000B4DA8420ED1CD6822F0800242EA051280
:101340004D6923F4406343EA85038D6922F040022E
:1013500043EA85034360846149688163026230BD6A
:101360000000014030B5026A22F480720262036A12
:101370004268C46923F4007324F073050C682C439D
:101380008D6843EA05230C4DA8420ED1CD6823F4A5
:10139000006343EA05234D6922F4405242EA0512F4
:1013A0008D6923F4806342EA05124260C461496892
:1013B000C163036230BD00000000014030B5026A25
:1013C00022F480520262046A4268C3690D6823F401
:1013D000E64343EA05238D6824F4005444EA0534C7
:1013E000064DA84204D14D6922F4804242EA85129A
:1013F0004260C36149680164046230BD000001407D
:101400002DE9F04104460068016921F44052E16889
:10141000114301612168C86849F20C629043236955
:10142000A268E5691A4363692B431A430243CA6001
:101430002168486920F44072A06910434861E1695D
:101440006425B1F5004F9748974A21684FF032085C
:101450003FD0914201D081427CD1FFF761F900EB8E
:10146000C00101EB001061688900B0FBF1F6FFF7E5
:1014700057F900EBC00101EB001061688900B0FB77
:10148000F1F0B0FBF5F06FF01801484306EB800176
:1014900008EB0110B0FBF5F000F0F006FFF740F9A3
:1014A00000EBC00101EB001061688900B0FBF1F0B6
:1014B000B0FBF5F006EB0016FFF732F900EBC001C8
:1014C00001EB001061688900B0FBF1F7FFF728F924
:1014D000D2E0914201D081423DD1FFF721F900EBEA
:1014E000C00101EB001061684900B0FBF1F0B0FBF6
:1014F000F5F00601FFF714F900EBC00101EB001055
:1015000061684900B0FBF1F7FFF70AF900EBC00191
:1015100001EB001061684900B0FBF1F0B0FBF5F0A1
:101520006FF01801484307EB800108EBC100B0FBE6
:10153000F5F000F0F80006EB4006FFF7F1F800EBDD
:10154000C00101EB001061684900B0FBF1F7FFF743
:10155000E7F83CE055E0FFF7D3F800EBC00101EB02
:10156000001061684900B0FBF1F0B0FBF5F0060136
:10157000FFF7C6F800EBC00101EB001061684900FD
:10158000B0FBF1F7FFF7BCF800EBC00101EB001076
:1015900061684900B0FBF1F0B0FBF5F06FF01801A5
:1015A000484307EB800108EBC100B0FBF5F000F009
:1015B000F80006EB4006FFF7A3F800EBC00101EBD3
:1015C000001061684900B0FBF1F7FFF799F800EBF4
:1015D000C00101EB001061684900B0FBF1F0B0FB05
:1015E000F5F06FF01801484307EB800108EBC100EC
:1015F000B0FBF5F000F00700216830448860BDE8DA
:10160000F081FFF77DF800EBC00101EB001061688D
:101610008900B0FBF1F6FFF773F800EBC00101EBB6
:10162000001061688900B0FBF1F0B0FBF5F06FF0DD
:101630001801484306EB800108EB0110B0FBF5F000
:1016400000F0F006FFF75CF800EBC00101EB0010C2
:1016500061688900B0FBF1F0B0FBF5F006EB001615
:10166000FFF74EF800EBC00101EB00106168890044
:10167000B0FBF1F7FFF744F800EBC00101EB0010FD
:1016800061688900B0FBF1F0B0FBF5F06FF0180174
:10169000484307EB800108EB0110B0FBF5F000F0C8
:1016A0000F00A9E700140140001001402DE9F041AE
:1016B000984617460E460446069D1DE0681C1BD042
:1016C0002DB1FEF7C3FEA0EB0800A84214D9206894
:1016D000C16821F4D071C1602068416921F0010125
:1016E0004161202084F8390084F83A00002084F811
:1016F00038000320BDE8F0812068006836EA000069
:1017000004D00020B842D9D00020F3E70120F9E747
:10171000FEE7FEE702E008C8121F08C1002AFAD15E
:1017200070477047002001E001C1121F002AFBD161
:101730007047000030B52A49054687B00A68002086
:1017400042F001020A600A6802F0010205920A688A
:1017500042F002020A600A6802F0020205920A6878
:1017600042F004020A600A6802F0040205920A6864
:1017700042F008020A60096801F0080105910121A0
:10178000019103210024CDE9020100BF05EB4400D3
:101790006946008D009055F82400FEF78DFD641C0D
:1017A000E4B2082CF2D32820FEF774FD95F83C0033
:1017B000012801D010B105E0382100E02821284699
:1017C00000F024F90121284600F020F906212846DE
:1017D00000F01CF90C21284600F018F907B030BDC4
:1017E0003038024070B50E460446418F406A0122EF
:1017F000FEF726FE218F0122206AFEF721FE94F8D3
:101800003C00012801D088B146E0002526FA05F009
:1018100000F0010204EB4500018D54F82500FEF7AD
:101820000FFE6D1CEDB2082DF0D330E05FF0040523
:1018300026FA05F000F0010204EB4500018C04EBF0
:10184000850050F8100CFEF7FBFD6D1CEDB2082D65
:10185000EED3218F0022206AFEF7F2FD0120FEF771
:1018600019FD218F0122206AFEF7EAFD5FF00005D5
:1018700026FA05F000F0010204EB4500018D54F852
:101880002500FEF7DDFD6D1CEDB2042DF0D3218F98
:101890000022206AFEF7D4FDBDE870400120FEF76B
:1018A000F9BC000008B507A369441B68009311F850
:1018B000011C521E1144C9B200F0A8F80120FEF725
:1018C000E9FC08BD80C0000090B0FEF7CDFDFFF739
:1018D00027FCFFF709FBFFF7E1FBFFF74DFBFFF7E5
:1018E0009FFB08213748FFF733FA08213648FFF7F6
:1018F0002FFA344D1E202968C86333493C200968FB
:10190000C86333483149334ACDE90010CDE90202BA
:10191000CDE90410079006900015ADF8280080105E
:10192000ADF82A004000ADF82C0040228020ADF830
:101930003020ADF82E00ADF832002020ADF8342074
:10194000ADF836000991ADF838000820ADF83A003E
:1019500001208DF83C0008916846FFF7EBFE4FF43C
:101960007A773846FEF796FC012202216846FFF797
:1019700099FF48216846FFF735FFC823142216A1B6
:101980001B48FFF753FA4FF496763846FEF782FC71
:10199000012202216846FFF785FF48216846FFF7CC
:1019A00021FF0024C823142212A11148FFF73EFA98
:1019B0002868C4633046FEF76DFC641CE4B2282C32
:1019C000F0D3E2E7100000204C00002000040240A9
:1019D000000002400008024048656C6C6F2065768C
:1019E000657279206F6E652E2E2E210A0000000090
:1019F0008800002048656C6C6F20657665727920E0
:101A000074776F2E2E2E210A0000000070B50E464E
:101A10000446418F406A0022FEF712FD218F012209
:101A2000206AFEF70DFD94F83C00012801D088B132
:101A300046E0002526FA05F000F0010204EB45001F
:101A4000018D54F82500FEF7FBFC6D1CEDB2082D4E
:101A5000F0D330E05FF0040526FA05F000F0010253
:101A600004EB4500018C04EB850050F8100CFEF7E8
:101A7000E7FC6D1CEDB2082DEED3218F0022206A09
:101A8000FEF7DEFC0120FEF705FC218F0122206A13
:101A9000FEF7D6FC5FF0000526FA05F000F0010223
:101AA00004EB4500018D54F82500FEF7C9FC6D1CC0
:101AB000EDB2042DF0D3218F0022206AFEF7C0FC86
:101AC000BDE870400120FEF7E5BB0000000000000B
:101AD00000000102030406070809000000000102DB
:101AE00003040000041B0008000000201000000098
:101AF00014170008141B000810000020B804000090
:101B00002417000801000000100000000000000081
:041B10000024F400B9
:040000050800019559
:00000001FF
