:020000040800F2
:10000000C8040020A9010008331000082D0E0008C4
:100010003110000891020008F515000800000000EA
:100020000000000000000000000000005710000861
:100030009302000800000000551000085910000845
:10004000C3010008C3010008C3010008C301000880
:10005000C3010008C3010008C3010008C301000870
:10006000C3010008C3010008C3010008C301000860
:10007000C3010008C3010008C3010008C301000850
:10008000C3010008C3010008C3010008000000000C
:10009000000000000000000000000000C301000894
:1000A000C3010008C3010008C3010008C301000820
:1000B000C3010008C3010008C3010008C301000810
:1000C000C3010008C3010008C3010008C301000800
:1000D000C3010008C3010008C301000800000000BC
:1000E000C3010008C3010008C301000800000000AC
:1000F000000000000000000000000000C301000834
:1001000000000000C3010008C3010008C30100088B
:1001100000000000000000000000000000000000DF
:10012000C3010008C3010008C3010008C30100089F
:10013000C3010008000000000000000000000000F3
:10014000000000000000000000000000C3010008E3
:10015000C3010008C3010008C3010008C30100086F
:10016000C3010008C30100080000000000000000F7
:10017000000000000000000000000000000000007F
:1001800000000000C30100080000000000000000A3
:10019000C3010008DFF80CD000F068F80048004701
:1001A000E5170008C80400200648804706480047B5
:1001B000FEE7FEE7FEE7FEE7FEE7FEE7FEE7FEE717
:1001C000FEE7FEE709110008950100082DE9F05F40
:1001D0000546002092469B468846064681464024B6
:1001E0001BE0284641464746224600F02FF853467A
:1001F0005A46C01A914110D311461846224600F0C3
:1002000016F82D1A67EB01084F46224601200021FF
:1002100000F00DF817EB00094E41201EA4F1010477
:10022000DFDC484631462A464346BDE8F09F202A97
:1002300004DB203A00FA02F1002070479140C2F13D
:10024000200320FA03F3194390407047202A04DB6F
:10025000203A21FA02F00021704721FA02F3D0403F
:10026000C2F120029140084319467047064C074DE1
:1002700006E0E06840F0010394E807009847103476
:10028000AC42F6D3FFF78AFFA4190008C41900088E
:10029000FEE7704770B5044600F0D8F80546601CCC
:1002A00002D004480078044400F0D0F8401BA0427B
:1002B000FAD370BD000000202DE9F84FDFF860B1DF
:1002C00000224FF001084FF0030A4FF00F090BF125
:1002D000040E00BF0B6808FA02F42340A3426ED15B
:1002E0004D68022D01D0122D0ED1D50800EB850CE2
:1002F000DCF820505607F70E09FA07F6B5430E69E9
:10030000BE402E43CCF82060066855000F790AFAEB
:1003100005FC07F0030726EA0C06AF4037430760E9
:100320004E68012E05D0022E03D0112E01D0122EC0
:100330000ED18668CF6826EA0C06AF403743876047
:100340004668A6430C79C4F30014944034434460D7
:10035000C6688C6826EA0C06AC403443C4604C681E
:10036000E40056D52F4C256845F480452560246867
:1003700022F0030504F4804400942B4C2E19D6F887
:10038000084895072F0F09FA07F5AC43274DA842F7
:1003900001D1002515E0264DA84201D1012510E02C
:1003A000244DA84201D102250BE0234DA84201D1E2
:1003B000032506E0214DA84202D1042501E028E0F2
:1003C0000725BD402543C6F80858DBF800405D46C8
:1003D0004E689C43F60300D51C432C60DEF80040B9
:1003E00075464E689C43B60300D51C432C600C4DEB
:1003F00008352C684E689C43F60200D51C432C60DF
:10040000074D0C352C684E689C43B60200D51C4342
:100410002C60521C102AFFF45DAFBDE8F88F00007D
:10042000003C0140443802400030014000000240DE
:100430000004024000080240000C0240001002408C
:100440000AB1816170470904FBE700000148806838
:1004500070470000000000200248816802781144C3
:1004600081607047000000200B4810B5016841F41E
:1004700000710160016841F480610160016841F42C
:1004800080710160032000F08BF8002000F006F876
:1004900000F024F8002010BD003C024070B50D4D66
:1004A00004464FF47A712878B1FBF0F00A490968E4
:1004B000B1FBF0F000F00FFB48B9102C07D200227E
:1004C0002146501E00F04CF800206C6070BD0120E9
:1004D00070BD0000000000200C0000201F4808B57F
:1004E000016841F480410160006800F480400090A0
:1004F0001A48001F016841F080510160006800F057
:1005000080500090072000F04BF8002211466FF059
:100510000B0000F025F8002211466FF00A0000F0F1
:100520001FF8002211466FF0090000F019F80022B0
:100530001146501F00F014F800221146101F00F061
:100540000FF800221146901E00F00AF80022BDE8C4
:1005500008401146501E00F003B800004438024025
:10056000F0B40E4B1B680C46C3F30223C3F107051E
:10057000042D00D90425191D072901D2002300E00C
:10058000DB1E012606FA05F1491E214099409E40D6
:10059000761E16403143F0BC00F04CBD0CED00E07F
:1005A000064900F0070208684FF6FF03184040EACA
:1005B0000220034A10430860704700000CED00E081
:1005C0000000FA052DE9F0470E46050065D0DFF87A
:1005D0001481D8F80000F7B200F00F00B04207D243
:1005E00088F80070D8F8000000F00F00B04254D135
:1005F00028683D4C810712D5400703D5206840F498
:10060000E05020602878000703D5206840F460405F
:1006100020602068A96820F0F00008432060287856
:10062000C0072DD0304968680839012812D0022847
:1006300013D0032811D00968890700292DDA216811
:1006400021F0030101432160FFF700FF814641F2E1
:10065000883A0EE009688903EFE709688901ECE749
:10066000FFF7F4FEA0EB0901514502D90320BDE8D4
:10067000F0872068696800F00C00B0EB810FEFD1C3
:10068000D8F80010404601F00F01B14207D90770B9
:10069000006800F00F00B04201D00120E7E72878A1
:1006A000400705D52068E96820F4E0500843206041
:1006B0002878000706D52068296920F4604040EAC0
:1006C000C100206000F03CF82168084AC1F3031122
:1006D000515CC840064908600020FFF7DFFE00209B
:1006E000C5E70000003C0240083802408A190008B3
:1006F0000C00002001480068704700000C0000203A
:100700000448054900680968044AC1F38221515C24
:10071000C84070470C000020083802409A190008B1
:100720000448054900680968044AC1F34231515C34
:10073000C84070470C000020083802409A19000891
:10074000154810B5006810F00C02144813D0411081
:10075000042A0FD0082A0ED10F4C241F22682368C8
:1007600002F03F025B0207D52068C0F38810A0FBAF
:10077000010106E0084610BD2168C1F38811A1FB04
:1007800000010023FFF722FD2168C1F30141491C4C
:100790004900B0FBF1F010BD083802400024F4001D
:1007A0002DE9F84F050076D02878DFF8F8B2BE4C76
:1007B000C00749D0DBF800105846C1F38101012978
:1007C00008D00068C0F3810002280AD1201D00680B
:1007D000400206D52068800336D568680028E2D03C
:1007E00032E06868B0F5803F10D0B0F5A02F2068E7
:1007F00010D020F480302060206820F48020206019
:100800006868A0B1FFF722FE06460CE0206840F4BD
:100810008030F4E740F480202060F7E7FFF716FE11
:10082000801B642873D820688003F7D50CE0FFF79D
:100830000DFE064605E000BFFFF708FE801B64289A
:10084000F0D820688003F7D42878DFF8608280072A
:100850004FF000093ED5DBF80010584611F00C0FA0
:1008600009D00068C0F3810002280BD18D48001F19
:100870000068400206D42068800715D5E868012882
:1008800009D111E0E868B8B10120C8F80000FFF70D
:10089000DDFD064605E002E1FFF7D8FD801B0228DA
:1008A000C0D820688007F7D52068296920F0F800B3
:1008B00040EAC10020600DE0C8F80090FFF7C6FDD7
:1008C000064604E0FFF7C2FD801B02281FD82068FF
:1008D0008007F7D42878000722D5724E74486969DA
:1008E0006C3671B101210160FFF7B0FD074604E0ED
:1008F000FFF7ACFDC01B022809D830688007F7D588
:100900000EE0C0F80090FFF7A1FD074605E083E088
:10091000FFF79CFDC01B02287ED830688007F7D403
:100920002878400768D5DFF87CA100270AF1380A4B
:10093000DAF80000C0000BD4DAF8001041F0805162
:10094000CAF80010DAF80000012700F0805000908B
:10095000584E3068C00510D4306840F48070306064
:10096000FFF774FD009005E0FFF770FD0099401A55
:10097000022851D83068C005F6D54A4EA8686836B6
:1009800001280FD00528306810D020F00100306019
:10099000306820F004003060A868B8B1FFF756FD59
:1009A00000900FE0306840F00100F4E740F00400F0
:1009B0003060F7E7FFF74AFD0099411A41F28830AD
:1009C000814264D830688007F4D50EE0FFF73EFD21
:1009D000009007E0FFF73AFD0099411A41F2883094
:1009E000814254D830688007F4D42FB1DAF800106F
:1009F00021F08051CAF80010A869C0B3DBF80010DC
:100A0000C1F3810102294AD00228484607D0C8F81C
:100A10006000FFF71BFD00E039E005463AE047467D
:100A2000C8F86000FFF712FD064604E0FFF70EFD70
:100A3000801B02282BD820688001F7D4D5E9070154
:100A40000843A96A1C4A490802EB01416A6A41EA63
:100A50008211084395F82C1040EA01611148001FEB
:100A6000016001203866FFF7F1FC054605E014E05F
:100A7000FFF7ECFC401B022809D820688001F7D55D
:100A80000BE000BFFFF7E2FC401B022802D9032065
:100A9000BDE8F88F20688001F4D40020F8E7012039
:100AA000F6E70000083802400038024000004742E4
:100AB000800E4742007000400000FFFF4FF0E02131
:100AC0000428086903D020F004000861704740F052
:100AD0000400FAE7704710B5401EB0F1807F01D3E3
:100AE000012010BD4FF0E02460610F21601700F07D
:100AF000A1FA0020A06107202061002010BD10B5E0
:100B0000FFF7E8FF10BD10B590F83820012A25D076
:100B1000012280F83820CA688C6822F4407222438F
:100B20004C6822F4806222430C6822F40062224363
:100B30000C6922F4805222434C6922F40052224371
:100B40008C6922F48042224322F40041026800238F
:100B50002143516480F83830002010BD022010BDC0
:100B600030B590F83820012A20D0012280F83820B2
:100B7000022380F8393003685C6824F070045C60FC
:100B800003685C680D682C435C6003689C6824F013
:100B900080049C6003689C6849680C439C6080F8F2
:100BA0003920002180F83810084630BD022030BDC1
:100BB00000B5104B02680021022085B09A4209D18D
:100BC00042020092CDE901010120CDE903106946FE
:100BD00009480AE0094B9A4209D192150092CDE9E1
:100BE0000101CDE9031069460548FFF765FB05B033
:100BF00000BD00000000014000000240000800406D
:100C00000004024070B5044690F838000D460128F3
:100C10000DD0012684F83860022084F8390042B1F2
:100C2000042A18D0082A2AD00C2A4DD139E00220F3
:100C300070BD206800F0E6FA2068816941F0080183
:100C400081612068816921F00401816120688169E6
:100C50002A69114311E0206800F0FCFA20688169DC
:100C600041F4006181612068816921F480618161C2
:100C7000206881692A6941EA0221816124E02068B3
:100C800000F014FB2068C16941F00801C1612068CF
:100C9000C16921F00401C1612068C1692A69114359
:100CA00011E0206800F02EFB2068C16941F400616A
:100CB000C1612068C16921F48061C1612068C16996
:100CC0002A6941EA0221C16184F83960002084F870
:100CD000380070BD10B5040003D094F8390010B18D
:100CE00007E0012010BD002084F83800204600F005
:100CF0000DF8022084F83900211D206800F02EFA3A
:100D0000012084F83900002010BD000008B50068FB
:100D10000C49884208D10C48016841F0010101608A
:100D2000006800F001000BE00849884209D106483C
:100D3000001F016841F004010160006800F0040038
:100D4000009008BD00000140443802400008004007
:100D500010B504460068012200F048FA07492068EF
:100D6000884203D1416C41F400414164206801682C
:100D700041F001010160002010BD000000000140B1
:100D800070B5040004D094F83900002510B106E0D5
:100D9000012070BD84F83850204600F023F824204C
:100DA00084F839002068C16821F40051C1602046F0
:100DB00000F0CAFA2068016921F4904101612068BD
:100DC000416921F02A0141612068C16841F4005164
:100DD000C160E563202084F8390084F83A000020DF
:100DE00070BD000000B500680D4987B0884215D17C
:100DF0000C480021026842F400320260006800F4EE
:100E0000003005900C2000900220CDE90101072060
:100E1000CDE9031069460448FFF74EFA07B000BD5C
:100E2000004400404038024000000240FEE700005D
:100E300030B51F4887B00024016841F0040101600B
:100E4000016801F004010591016841F08001016031
:100E5000016801F080010591016841F00101016024
:100E6000016801F001010591016841F00201016092
:100E70000068104D00F00200059000222021284655
:100E8000FFF7DEFA4FF4005000900B48CDE9010463
:100E900069460A48FFF710FA202000900120CDE9AA
:100EA0000104694628460394FFF706FA07B030BDEF
:100EB00030380240000002400000211000080240CB
:100EC00010B5244890B022490024C0E900146421E0
:100ED000C0E9024104614461FFF7FCFE18B1412101
:100EE0001DA000F088FB0E940EA91A480F94FFF77E
:100EF00037FE18B1482118A000F07DFB602000905B
:100F00003220CDE901040394049405940822694633
:100F100010480694FFF776FE18B154210EA000F099
:100F20006AFB0794089409944FF400500A94CDE9A1
:100F30000B4007A907480D94FFF7E5FD18B16021A4
:100F400005A000F058FB0348FFF732FE10B010BDBB
:100F500000000140100000202E2E2F5372632F74CA
:100F6000696D2E630000000010B519488AB017495A
:100F70000024C0E900146421C0E902410461FFF7C4
:100F8000A9FE18B1732113A000F035FB079407A93F
:100F90000F480894FFF7E4FD18B17A210DA000F086
:100FA0002AFB602000903220CDE901040822694626
:100FB00007480494FFF726FE18B1832105A000F02E
:100FC0001AFB0348FFF7F4FD0AB010BD000800400B
:100FD0004C0000202E2E2F5372632F74696D2E63E8
:100FE000000000000D4810B50B4901604FF4E131DD
:100FF0004160002181600C22C160C0E9041281615E
:10100000C161FFF7BDFE002805D0BDE810404221B8
:1010100003A000F0F0BA10BD00440040880000209A
:101020002E2E2F5372632F75736172742E6300001E
:10103000FEE770470907090E002806DA00F00F00E6
:1010400000F1E02080F8141D704700F1E02080F8E6
:10105000001470477047704710B5FFF7FDF9BDE801
:101060001040FFF74CBD000030B5254893B0002478
:10107000016841F080510160006800F080501190DB
:101080002048016821F4404141F4004101600068BA
:10109000022500F44040119001200390102000959B
:1010A00006950490CDE907404FF4A87009900420FC
:1010B0000A9007200B906846FFF772FB00B1FEE72D
:1010C0000F20CDE90C054FF48050CDE90E400221F0
:1010D0000CA81094FFF776FA00B1FEE7FFF70AFBC1
:1010E0004FF47A71B0FBF1F0FFF7F5FC0420FFF745
:1010F000E5FC00221146501EFFF732FA13B030BD56
:1011000040380240007000401048016841F470010E
:1011100001600F48016841F0010101600C4A0021A3
:101120000832116002680B4B1A400260031D0A4A24
:101130001A60026822F48022026005480C300160C7
:1011400002495806803908607047000088ED00E0C9
:1011500000380240FFFFF6FE10300024F0B50268B0
:101160001B4B1C4C9F031C4D1C4E984207D0B84291
:1011700005D0A04203D0A84201D0B04204D122F051
:10118000700C4A6842EA0C02984210D0B8420ED065
:10119000A0420CD0A8420AD0B04208D0104CA042C5
:1011A00005D0104CA04202D00F4CA04203D122F433
:1011B0004074CA68224302608A68C2620A68826216
:1011C000984201D10969016301214161F0BD00002C
:1011D000000001400004004000080040000C0040F6
:1011E00000400140004401400048014010B5012387
:1011F000046A8B409C430462036A8A40134303627F
:1012000010BD000030B5026A22F001020262026ADB
:101210004368846924F073050C682C4322F00205AE
:101220008A682A430A4DA8420BD122F00805CA68F1
:1012300023F440732A434D6922F004021D438B6955
:101240002B434360846149684163026230BD000002
:101250000000014030B5026A22F010020262026A08
:10126000436884690D6824F4E64444EA05248D68E3
:1012700022F0200242EA05120B4DA8420ED1CD68A1
:1012800022F0800242EA05124D6923F4406343EAEA
:1012900085038D6922F0400243EA8503436084613F
:1012A00049688163026230BD0000014030B5026AC6
:1012B00022F480720262036A4268C46923F40073F4
:1012C00024F073050C682C438D6843EA05230C4D0C
:1012D000A8420ED1CD6823F4006343EA05234D698B
:1012E00022F4405242EA05128D6923F4806342EAF7
:1012F00005124260C4614968C163036230BD0000E9
:101300000000014030B5026A22F480520262046A91
:101310004268C3690D6823F4E64343EA05238D68F8
:1013200024F4005444EA0534064DA84204D14D6922
:1013300022F4804242EA85124260C3614968016436
:10134000046230BD000001402DE9F0410446006810
:10135000016921F44052E168114301612168C868C4
:1013600049F20C6290432369A268E5691A436369F4
:101370002B431A430243CA602168486920F4407233
:10138000A06910434861E1696425B1F5004F9748B1
:10139000974A21684FF032083FD0914201D08142F4
:1013A0007CD1FFF7BDF900EBC00101EB00106168D3
:1013B0008900B0FBF1F6FFF7B3F900EBC00101EBD8
:1013C000001061688900B0FBF1F0B0FBF5F06FF040
:1013D0001801484306EB800108EB0110B0FBF5F063
:1013E00000F0F006FFF79CF900EBC00101EB0010E4
:1013F00061688900B0FBF1F0B0FBF5F006EB001678
:10140000FFF78EF900EBC00101EB00106168890065
:10141000B0FBF1F7FFF784F9D2E0914201D08142AD
:101420003DD1FFF77DF900EBC00101EB00106168D1
:101430004900B0FBF1F0B0FBF5F00601FFF770F9E1
:1014400000EBC00101EB001061684900B0FBF1F74F
:10145000FFF766F900EBC00101EB0010616849007D
:10146000B0FBF1F0B0FBF5F06FF01801484307EB6B
:10147000800108EBC100B0FBF5F000F0F80006EBCE
:101480004006FFF74DF900EBC00101EB0010616869
:101490004900B0FBF1F7FFF743F93CE055E0FFF7F7
:1014A0002FF900EBC00101EB001061684900B0FBAF
:1014B000F1F0B0FBF5F00601FFF722F900EBC001F7
:1014C00001EB001061684900B0FBF1F7FFF718F974
:1014D00000EBC00101EB001061684900B0FBF1F0C6
:1014E000B0FBF5F06FF01801484307EB800108EB03
:1014F000C100B0FBF5F000F0F80006EB4006FFF786
:10150000FFF800EBC00101EB001061684900B0FB7F
:10151000F1F7FFF7F5F800EBC00101EB001061688F
:101520004900B0FBF1F0B0FBF5F06FF01801484353
:1015300007EB800108EBC100B0FBF5F000F00700FD
:10154000216830448860BDE8F081FFF7D9F800EBEE
:10155000C00101EB001061688900B0FBF1F6FFF7F4
:10156000CFF800EBC00101EB001061688900B0FB0F
:10157000F1F0B0FBF5F06FF01801484306EB800185
:1015800008EB0110B0FBF5F000F0F006FFF7B8F83B
:1015900000EBC00101EB001061688900B0FBF1F0C5
:1015A000B0FBF5F006EB0016FFF7AAF800EBC00160
:1015B00001EB001061688900B0FBF1F7FFF7A0F8BC
:1015C00000EBC00101EB001061688900B0FBF1F095
:1015D000B0FBF5F06FF01801484307EB800108EB12
:1015E0000110B0FBF5F000F00F00A9E70014014076
:1015F00000100140FEE7FEE702E008C8121F08C124
:10160000002AFAD170477047002001E001C1121F83
:10161000002AFBD17047012100F058B930B530499C
:10162000044687B00A68002042F001020A600A6896
:1016300002F0010205920A6842F002020A600A689A
:1016400002F0020205920A6842F004020A600A6887
:1016500002F0040205920A6842F008020A60096872
:1016600001F0080105910121019103210025CDE937
:10167000020100BF04EB45006946808D009054F8DC
:101680002500FEF719FE6D1CEDB2082DF2D3E08F98
:1016900000906946606AFEF70FFEA08F00906946D1
:1016A000206AFEF709FE2820FEF7F4FD94F84200B8
:1016B000012801D010B105E0382100E028212046A2
:1016C00000F004F90121204600F000F9062120462F
:1016D00000F0FCF80E21204600F0F8F807B030BD0D
:1016E0003038024070B50E460446C18F406A012270
:1016F000FEF7A6FEA18F0122206AFEF7A1FE94F854
:101700004200012801D088B146E0002526FA05F004
:1017100000F0010204EB4500818D54F82500FEF72E
:101720008FFE6D1CEDB2082DF0D330E05FF00405A4
:1017300026FA05F000F0010204EB4500818C04EB71
:10174000850050F8100CFEF77BFE6D1CEDB2082DE5
:10175000EED3A18F0022206AFEF772FE0120FEF771
:1017600099FDA18F0122206AFEF76AFE5FF0000555
:1017700026FA05F000F0010204EB4500818D54F8D3
:101780002500FEF75DFE6D1CEDB2042DF0D3A18F98
:101790000022206AFEF754FEBDE870400120FEF7EB
:1017A00079BD70B50C46054606E02846FFF79AFF5E
:1017B0000120641CFEF76EFD21780029F5D170BD73
:1017C00008B507A369441B68009311F8011C521E59
:1017D0001144C9B200F07AF80120FEF75BFD08BDA4
:1017E00080C0000092B0FEF73FFEFFF73DFCFFF720
:1017F0001FFBFFF7F7FBFFF763FBFFF7B5FB0821C4
:101800002B48FFF7A5FA08212A48FFF7A1FA284933
:101810000A200968C86327493C200968C86327482B
:101820002549274ACDE90010CDE90202CDE904108F
:10183000069007900015ADF82C008010ADF82E0032
:101840004000ADF8300040228020ADF83420ADF8E3
:101850003600ADF83200ADF838202020ADF83A005F
:101860000820ADF83E001020ADF83C0001208DF8B6
:101870004200099108916846FFF7D0FE4FF47A7450
:101880002046FEF707FD48216846FFF72BFF05229B
:1018900002216846FFF794FF0AA16846FFF781FF1F
:1018A0002046FEF7F7FC6846FFF7B5FEFEE70000AE
:1018B000100000204C000020000402400000024004
:1018C0000008024050415248414D000070B50E469C
:1018D0000446C18F406A0022FEF7B2FDA18F0122AB
:1018E000206AFEF7ADFD94F84200012801D088B1CE
:1018F00046E0002526FA05F000F0010204EB450061
:10190000818D54F82500FEF79BFD6D1CEDB2082D6E
:10191000F0D330E05FF0040526FA05F000F0010294
:1019200004EB4500818C04EB850050F8100CFEF7A9
:1019300087FD6D1CEDB2082DEED3A18F0022206A29
:10194000FEF77EFD0120FEF7A5FCA18F0122206A93
:10195000FEF776FD5FF0000526FA05F000F00102C3
:1019600004EB4500818D54F82500FEF769FD6D1CE0
:10197000EDB2042DF0D3A18F0022206AFEF760FDA6
:10198000BDE870400120FEF785BC000000000000AB
:10199000000001020304060708090000000001021C
:1019A00003040000C419000800000020100000001B
:1019B000F8150008D419000810000020B804000031
:1019C00008160008010000001000000000000000E0
:0419D0000024F400FB
:040000050800019559
:00000001FF
